{
  "_format": "hh-sol-artifact-1",
  "contractName": "VestingContract",
  "sourceName": "contracts/Vesting.sol",
  "abi": [
    {
      "inputs": [
        {
          "internalType": "contract ERC20",
          "name": "_token",
          "type": "address"
        }
      ],
      "stateMutability": "nonpayable",
      "type": "constructor"
    },
    {
      "inputs": [
        {
          "internalType": "address",
          "name": "owner",
          "type": "address"
        }
      ],
      "name": "OwnableInvalidOwner",
      "type": "error"
    },
    {
      "inputs": [
        {
          "internalType": "address",
          "name": "account",
          "type": "address"
        }
      ],
      "name": "OwnableUnauthorizedAccount",
      "type": "error"
    },
    {
      "anonymous": false,
      "inputs": [
        {
          "indexed": false,
          "internalType": "address",
          "name": "beneficiary",
          "type": "address"
        },
        {
          "indexed": false,
          "internalType": "enum VestingContract.Role",
          "name": "role",
          "type": "uint8"
        },
        {
          "indexed": false,
          "internalType": "uint256",
          "name": "totalAmount",
          "type": "uint256"
        }
      ],
      "name": "BeneficiaryAdded",
      "type": "event"
    },
    {
      "anonymous": false,
      "inputs": [
        {
          "indexed": true,
          "internalType": "address",
          "name": "previousOwner",
          "type": "address"
        },
        {
          "indexed": true,
          "internalType": "address",
          "name": "newOwner",
          "type": "address"
        }
      ],
      "name": "OwnershipTransferred",
      "type": "event"
    },
    {
      "anonymous": false,
      "inputs": [
        {
          "indexed": false,
          "internalType": "address",
          "name": "beneficiary",
          "type": "address"
        },
        {
          "indexed": false,
          "internalType": "uint256",
          "name": "amount",
          "type": "uint256"
        }
      ],
      "name": "TokensReleased",
      "type": "event"
    },
    {
      "anonymous": false,
      "inputs": [
        {
          "indexed": false,
          "internalType": "uint256",
          "name": "startTime",
          "type": "uint256"
        }
      ],
      "name": "VestingStarted",
      "type": "event"
    },
    {
      "inputs": [],
      "name": "PARTNER_CLIFF_DURATION",
      "outputs": [
        {
          "internalType": "uint256",
          "name": "",
          "type": "uint256"
        }
      ],
      "stateMutability": "view",
      "type": "function"
    },
    {
      "inputs": [],
      "name": "PARTNER_PERCENTAGE",
      "outputs": [
        {
          "internalType": "uint256",
          "name": "",
          "type": "uint256"
        }
      ],
      "stateMutability": "view",
      "type": "function"
    },
    {
      "inputs": [],
      "name": "PARTNER_VESTING_DURATION",
      "outputs": [
        {
          "internalType": "uint256",
          "name": "",
          "type": "uint256"
        }
      ],
      "stateMutability": "view",
      "type": "function"
    },
    {
      "inputs": [],
      "name": "TEAM_CLIFF_DURATION",
      "outputs": [
        {
          "internalType": "uint256",
          "name": "",
          "type": "uint256"
        }
      ],
      "stateMutability": "view",
      "type": "function"
    },
    {
      "inputs": [],
      "name": "TEAM_PERCENTAGE",
      "outputs": [
        {
          "internalType": "uint256",
          "name": "",
          "type": "uint256"
        }
      ],
      "stateMutability": "view",
      "type": "function"
    },
    {
      "inputs": [],
      "name": "TEAM_VESTING_DURATION",
      "outputs": [
        {
          "internalType": "uint256",
          "name": "",
          "type": "uint256"
        }
      ],
      "stateMutability": "view",
      "type": "function"
    },
    {
      "inputs": [],
      "name": "USER_CLIFF_DURATION",
      "outputs": [
        {
          "internalType": "uint256",
          "name": "",
          "type": "uint256"
        }
      ],
      "stateMutability": "view",
      "type": "function"
    },
    {
      "inputs": [],
      "name": "USER_PERCENTAGE",
      "outputs": [
        {
          "internalType": "uint256",
          "name": "",
          "type": "uint256"
        }
      ],
      "stateMutability": "view",
      "type": "function"
    },
    {
      "inputs": [],
      "name": "USER_VESTING_DURATION",
      "outputs": [
        {
          "internalType": "uint256",
          "name": "",
          "type": "uint256"
        }
      ],
      "stateMutability": "view",
      "type": "function"
    },
    {
      "inputs": [
        {
          "internalType": "address",
          "name": "beneficiary",
          "type": "address"
        },
        {
          "internalType": "uint256",
          "name": "totalAmount",
          "type": "uint256"
        }
      ],
      "name": "addBeneficiary",
      "outputs": [],
      "stateMutability": "nonpayable",
      "type": "function"
    },
    {
      "inputs": [],
      "name": "owner",
      "outputs": [
        {
          "internalType": "address",
          "name": "",
          "type": "address"
        }
      ],
      "stateMutability": "view",
      "type": "function"
    },
    {
      "inputs": [
        {
          "internalType": "address",
          "name": "beneficiary",
          "type": "address"
        }
      ],
      "name": "releasableAmount",
      "outputs": [
        {
          "internalType": "uint256",
          "name": "",
          "type": "uint256"
        }
      ],
      "stateMutability": "view",
      "type": "function"
    },
    {
      "inputs": [],
      "name": "releaseTokens",
      "outputs": [],
      "stateMutability": "nonpayable",
      "type": "function"
    },
    {
      "inputs": [],
      "name": "renounceOwnership",
      "outputs": [],
      "stateMutability": "nonpayable",
      "type": "function"
    },
    {
      "inputs": [
        {
          "internalType": "address",
          "name": "",
          "type": "address"
        }
      ],
      "name": "roles",
      "outputs": [
        {
          "internalType": "enum VestingContract.Role",
          "name": "",
          "type": "uint8"
        }
      ],
      "stateMutability": "view",
      "type": "function"
    },
    {
      "inputs": [
        {
          "internalType": "address",
          "name": "beneficiary",
          "type": "address"
        },
        {
          "internalType": "enum VestingContract.Role",
          "name": "role",
          "type": "uint8"
        }
      ],
      "name": "setRole",
      "outputs": [],
      "stateMutability": "nonpayable",
      "type": "function"
    },
    {
      "inputs": [],
      "name": "startVesting",
      "outputs": [],
      "stateMutability": "nonpayable",
      "type": "function"
    },
    {
      "inputs": [],
      "name": "token",
      "outputs": [
        {
          "internalType": "contract ERC20",
          "name": "",
          "type": "address"
        }
      ],
      "stateMutability": "view",
      "type": "function"
    },
    {
      "inputs": [
        {
          "internalType": "address",
          "name": "newOwner",
          "type": "address"
        }
      ],
      "name": "transferOwnership",
      "outputs": [],
      "stateMutability": "nonpayable",
      "type": "function"
    },
    {
      "inputs": [
        {
          "internalType": "address",
          "name": "",
          "type": "address"
        }
      ],
      "name": "vestingSchedules",
      "outputs": [
        {
          "internalType": "uint256",
          "name": "totalAmount",
          "type": "uint256"
        },
        {
          "internalType": "uint256",
          "name": "releasedAmount",
          "type": "uint256"
        },
        {
          "internalType": "uint256",
          "name": "startTime",
          "type": "uint256"
        },
        {
          "internalType": "uint256",
          "name": "cliffTime",
          "type": "uint256"
        },
        {
          "internalType": "uint256",
          "name": "duration",
          "type": "uint256"
        }
      ],
      "stateMutability": "view",
      "type": "function"
    },
    {
      "inputs": [],
      "name": "vestingStarted",
      "outputs": [
        {
          "internalType": "bool",
          "name": "",
          "type": "bool"
        }
      ],
      "stateMutability": "view",
      "type": "function"
    }
  ],
  "bytecode": "0x60806040526000600160146101000a81548160ff0219169083151502179055503480156200002c57600080fd5b506040516200201938038062002019833981810160405281019062000052919062000264565b33600073ffffffffffffffffffffffffffffffffffffffff168173ffffffffffffffffffffffffffffffffffffffff1603620000c85760006040517f1e4fbdf7000000000000000000000000000000000000000000000000000000008152600401620000bf9190620002a7565b60405180910390fd5b620000d9816200012260201b60201c565b5080600160006101000a81548173ffffffffffffffffffffffffffffffffffffffff021916908373ffffffffffffffffffffffffffffffffffffffff16021790555050620002c4565b60008060009054906101000a900473ffffffffffffffffffffffffffffffffffffffff169050816000806101000a81548173ffffffffffffffffffffffffffffffffffffffff021916908373ffffffffffffffffffffffffffffffffffffffff1602179055508173ffffffffffffffffffffffffffffffffffffffff168173ffffffffffffffffffffffffffffffffffffffff167f8be0079c531659141344cd1fd0a4f28419497f9722a3daafe3b4186f6b6457e060405160405180910390a35050565b600080fd5b600073ffffffffffffffffffffffffffffffffffffffff82169050919050565b60006200021882620001eb565b9050919050565b60006200022c826200020b565b9050919050565b6200023e816200021f565b81146200024a57600080fd5b50565b6000815190506200025e8162000233565b92915050565b6000602082840312156200027d576200027c620001e6565b5b60006200028d848285016200024d565b91505092915050565b620002a1816200020b565b82525050565b6000602082019050620002be600083018462000296565b92915050565b611d4580620002d46000396000f3fe608060405234801561001057600080fd5b50600436106101375760003560e01c80638da5cb5b116100b8578063de7c2ed21161007c578063de7c2ed2146102f6578063deb36e3214610314578063f2fde38b1461031e578063f998c8e81461033a578063fc0c546a14610358578063fdb20ccb1461037657610137565b80638da5cb5b1461026457806396074e7014610282578063993746421461029e578063a334ed02146102ce578063a96f8668146102ec57610137565b8063702f63e6116100ff578063702f63e6146101e2578063715018a614610200578063796454161461020a57806384d9390a146102285780638b3834721461024657610137565b80631726cbc81461013c5780631f85612a1461016c578063409c881c1461018a57806355db189b146101a8578063571c3e60146101c6575b600080fd5b6101566004803603810190610151919061132c565b6103aa565b6040516101639190611372565b60405180910390f35b61017461048c565b6040516101819190611372565b60405180910390f35b610192610494565b60405161019f9190611372565b60405180910390f35b6101b061049c565b6040516101bd9190611372565b60405180910390f35b6101e060048036038101906101db91906113b2565b6104a4565b005b6101ea610567565b6040516101f79190611372565b60405180910390f35b61020861056c565b005b610212610580565b60405161021f9190611372565b60405180910390f35b610230610587565b60405161023d9190611372565b60405180910390f35b61024e61058c565b60405161025b9190611372565b60405180910390f35b61026c610591565b6040516102799190611401565b60405180910390f35b61029c60048036038101906102979190611448565b6105ba565b005b6102b860048036038101906102b3919061132c565b610b39565b6040516102c591906114ff565b60405180910390f35b6102d6610b59565b6040516102e39190611372565b60405180910390f35b6102f4610b60565b005b6102fe610e39565b60405161030b9190611372565b60405180910390f35b61031c610e41565b005b6103386004803603810190610333919061132c565b610eec565b005b610342610f72565b60405161034f9190611535565b60405180910390f35b610360610f85565b60405161036d91906115af565b60405180910390f35b610390600480360381019061038b919061132c565b610fab565b6040516103a19594939291906115ca565b60405180910390f35b600080600260008473ffffffffffffffffffffffffffffffffffffffff1673ffffffffffffffffffffffffffffffffffffffff16815260200190815260200160002090508060030154421015610404576000915050610487565b80600401548160020154610418919061164c565b421061043a57806001015481600001546104329190611680565b915050610487565b600081600201544261044c9190611680565b90506000826004015482846000015461046591906116b4565b61046f9190611725565b90508260010154816104819190611680565b93505050505b919050565b6301e1338081565b63018b820081565b6303c2670081565b6104ac610fe1565b600160149054906101000a900460ff16156104fc576040517f08c379a00000000000000000000000000000000000000000000000000000000081526004016104f3906117d9565b60405180910390fd5b80600360008473ffffffffffffffffffffffffffffffffffffffff1673ffffffffffffffffffffffffffffffffffffffff16815260200190815260200160002060006101000a81548160ff0219169083600381111561055e5761055d611488565b5b02179055505050565b603281565b610574610fe1565b61057e6000611068565b565b624f1a0081565b601981565b601981565b60008060009054906101000a900473ffffffffffffffffffffffffffffffffffffffff16905090565b6105c2610fe1565b600160149054906101000a900460ff1615610612576040517f08c379a00000000000000000000000000000000000000000000000000000000081526004016106099061186b565b60405180910390fd5b6000600381111561062657610625611488565b5b600360008473ffffffffffffffffffffffffffffffffffffffff1673ffffffffffffffffffffffffffffffffffffffff16815260200190815260200160002060009054906101000a900460ff16600381111561068557610684611488565b5b036106c5576040517f08c379a00000000000000000000000000000000000000000000000000000000081526004016106bc906118d7565b60405180910390fd5b6000600260008473ffffffffffffffffffffffffffffffffffffffff1673ffffffffffffffffffffffffffffffffffffffff168152602001908152602001600020600001541461074a576040517f08c379a000000000000000000000000000000000000000000000000000000000815260040161074190611943565b60405180910390fd5b60008060006001600381111561076357610762611488565b5b600360008773ffffffffffffffffffffffffffffffffffffffff1673ffffffffffffffffffffffffffffffffffffffff16815260200190815260200160002060009054906101000a900460ff1660038111156107c2576107c1611488565b5b036107de5763018b820092506303c267009150603290506108f7565b600260038111156107f2576107f1611488565b5b600360008773ffffffffffffffffffffffffffffffffffffffff1673ffffffffffffffffffffffffffffffffffffffff16815260200190815260200160002060009054906101000a900460ff16600381111561085157610850611488565b5b0361086c57624f1a0092506301e133809150601990506108f6565b60038081111561087f5761087e611488565b5b600360008773ffffffffffffffffffffffffffffffffffffffff1673ffffffffffffffffffffffffffffffffffffffff16815260200190815260200160002060009054906101000a900460ff1660038111156108de576108dd611488565b5b036108f557624f1a0092506301e133809150601990505b5b5b60006064828661090791906116b4565b6109119190611725565b90506040518060a0016040528082815260200160008152602001600081526020016000815260200184815250600260008873ffffffffffffffffffffffffffffffffffffffff1673ffffffffffffffffffffffffffffffffffffffff1681526020019081526020016000206000820151816000015560208201518160010155604082015181600201556060820151816003015560808201518160040155905050600160009054906101000a900473ffffffffffffffffffffffffffffffffffffffff1673ffffffffffffffffffffffffffffffffffffffff1663dd62ed3e33306040518363ffffffff1660e01b8152600401610a0e929190611963565b602060405180830381865afa158015610a2b573d6000803e3d6000fd5b505050506040513d601f19601f82011682018060405250810190610a4f91906119a1565b50600160009054906101000a900473ffffffffffffffffffffffffffffffffffffffff1673ffffffffffffffffffffffffffffffffffffffff166323b872dd3330846040518463ffffffff1660e01b8152600401610aaf939291906119ce565b6020604051808303816000875af1158015610ace573d6000803e3d6000fd5b505050506040513d601f19601f82011682018060405250810190610af29190611a31565b610b31576040517f08c379a0000000000000000000000000000000000000000000000000000000008152600401610b2890611aaa565b60405180910390fd5b505050505050565b60036020528060005260406000206000915054906101000a900460ff1681565b624f1a0081565b600160149054906101000a900460ff16610baf576040517f08c379a0000000000000000000000000000000000000000000000000000000008152600401610ba690611b16565b60405180910390fd5b6000600260003373ffffffffffffffffffffffffffffffffffffffff1673ffffffffffffffffffffffffffffffffffffffff16815260200190815260200160002090506000816000015411610c39576040517f08c379a0000000000000000000000000000000000000000000000000000000008152600401610c3090611b82565b60405180910390fd5b6000816002015403610c6b57428160020181905550610c573361112c565b42610c62919061164c565b81600301819055505b8060030154421015610cb2576040517f08c379a0000000000000000000000000000000000000000000000000000000008152600401610ca990611bee565b60405180910390fd5b6000610cbd336103aa565b905060008111610d02576040517f08c379a0000000000000000000000000000000000000000000000000000000008152600401610cf990611c5a565b60405180910390fd5b80826001016000828254610d16919061164c565b92505081905550600160009054906101000a900473ffffffffffffffffffffffffffffffffffffffff1673ffffffffffffffffffffffffffffffffffffffff1663a9059cbb33836040518363ffffffff1660e01b8152600401610d7a929190611c7a565b6020604051808303816000875af1158015610d99573d6000803e3d6000fd5b505050506040513d601f19601f82011682018060405250810190610dbd9190611a31565b610dfc576040517f08c379a0000000000000000000000000000000000000000000000000000000008152600401610df390611aaa565b60405180910390fd5b7fc7798891864187665ac6dd119286e44ec13f014527aeeb2b8eb3fd413df931793382604051610e2d929190611c7a565b60405180910390a15050565b6301e1338081565b610e49610fe1565b600160149054906101000a900460ff1615610e99576040517f08c379a0000000000000000000000000000000000000000000000000000000008152600401610e9090611cef565b60405180910390fd5b60018060146101000a81548160ff0219169083151502179055507f3930f04857ba592ba0a6a96942f8350c2415c0a4aa849021aeefee98bb55b12242604051610ee29190611372565b60405180910390a1565b610ef4610fe1565b600073ffffffffffffffffffffffffffffffffffffffff168173ffffffffffffffffffffffffffffffffffffffff1603610f665760006040517f1e4fbdf7000000000000000000000000000000000000000000000000000000008152600401610f5d9190611401565b60405180910390fd5b610f6f81611068565b50565b600160149054906101000a900460ff1681565b600160009054906101000a900473ffffffffffffffffffffffffffffffffffffffff1681565b60026020528060005260406000206000915090508060000154908060010154908060020154908060030154908060040154905085565b610fe96112c1565b73ffffffffffffffffffffffffffffffffffffffff16611007610591565b73ffffffffffffffffffffffffffffffffffffffff16146110665761102a6112c1565b6040517f118cdaa700000000000000000000000000000000000000000000000000000000815260040161105d9190611401565b60405180910390fd5b565b60008060009054906101000a900473ffffffffffffffffffffffffffffffffffffffff169050816000806101000a81548173ffffffffffffffffffffffffffffffffffffffff021916908373ffffffffffffffffffffffffffffffffffffffff1602179055508173ffffffffffffffffffffffffffffffffffffffff168173ffffffffffffffffffffffffffffffffffffffff167f8be0079c531659141344cd1fd0a4f28419497f9722a3daafe3b4186f6b6457e060405160405180910390a35050565b60006001600381111561114257611141611488565b5b600360008473ffffffffffffffffffffffffffffffffffffffff1673ffffffffffffffffffffffffffffffffffffffff16815260200190815260200160002060009054906101000a900460ff1660038111156111a1576111a0611488565b5b036111b25763018b820090506112bc565b600260038111156111c6576111c5611488565b5b600360008473ffffffffffffffffffffffffffffffffffffffff1673ffffffffffffffffffffffffffffffffffffffff16815260200190815260200160002060009054906101000a900460ff16600381111561122557611224611488565b5b0361123557624f1a0090506112bc565b60038081111561124857611247611488565b5b600360008473ffffffffffffffffffffffffffffffffffffffff1673ffffffffffffffffffffffffffffffffffffffff16815260200190815260200160002060009054906101000a900460ff1660038111156112a7576112a6611488565b5b036112b757624f1a0090506112bc565b600090505b919050565b600033905090565b600080fd5b600073ffffffffffffffffffffffffffffffffffffffff82169050919050565b60006112f9826112ce565b9050919050565b611309816112ee565b811461131457600080fd5b50565b60008135905061132681611300565b92915050565b600060208284031215611342576113416112c9565b5b600061135084828501611317565b91505092915050565b6000819050919050565b61136c81611359565b82525050565b60006020820190506113876000830184611363565b92915050565b6004811061139a57600080fd5b50565b6000813590506113ac8161138d565b92915050565b600080604083850312156113c9576113c86112c9565b5b60006113d785828601611317565b92505060206113e88582860161139d565b9150509250929050565b6113fb816112ee565b82525050565b600060208201905061141660008301846113f2565b92915050565b61142581611359565b811461143057600080fd5b50565b6000813590506114428161141c565b92915050565b6000806040838503121561145f5761145e6112c9565b5b600061146d85828601611317565b925050602061147e85828601611433565b9150509250929050565b7f4e487b7100000000000000000000000000000000000000000000000000000000600052602160045260246000fd5b600481106114c8576114c7611488565b5b50565b60008190506114d9826114b7565b919050565b60006114e9826114cb565b9050919050565b6114f9816114de565b82525050565b600060208201905061151460008301846114f0565b92915050565b60008115159050919050565b61152f8161151a565b82525050565b600060208201905061154a6000830184611526565b92915050565b6000819050919050565b600061157561157061156b846112ce565b611550565b6112ce565b9050919050565b60006115878261155a565b9050919050565b60006115998261157c565b9050919050565b6115a98161158e565b82525050565b60006020820190506115c460008301846115a0565b92915050565b600060a0820190506115df6000830188611363565b6115ec6020830187611363565b6115f96040830186611363565b6116066060830185611363565b6116136080830184611363565b9695505050505050565b7f4e487b7100000000000000000000000000000000000000000000000000000000600052601160045260246000fd5b600061165782611359565b915061166283611359565b925082820190508082111561167a5761167961161d565b5b92915050565b600061168b82611359565b915061169683611359565b92508282039050818111156116ae576116ad61161d565b5b92915050565b60006116bf82611359565b91506116ca83611359565b92508282026116d881611359565b915082820484148315176116ef576116ee61161d565b5b5092915050565b7f4e487b7100000000000000000000000000000000000000000000000000000000600052601260045260246000fd5b600061173082611359565b915061173b83611359565b92508261174b5761174a6116f6565b5b828204905092915050565b600082825260208201905092915050565b7f43616e6e6f742073657420726f6c65732061667465722076657374696e67206860008201527f6173207374617274656400000000000000000000000000000000000000000000602082015250565b60006117c3602a83611756565b91506117ce82611767565b604082019050919050565b600060208201905081810360008301526117f2816117b6565b9050919050565b7f43616e6e6f74206164642062656e65666963696172696573206166746572207660008201527f657374696e672068617320737461727465640000000000000000000000000000602082015250565b6000611855603283611756565b9150611860826117f9565b604082019050919050565b6000602082019050818103600083015261188481611848565b9050919050565b7f42656e656669636961727920726f6c65206e6f74207365740000000000000000600082015250565b60006118c1601883611756565b91506118cc8261188b565b602082019050919050565b600060208201905081810360008301526118f0816118b4565b9050919050565b7f56657374696e67207363686564756c6520616c72656164792065786973747300600082015250565b600061192d601f83611756565b9150611938826118f7565b602082019050919050565b6000602082019050818103600083015261195c81611920565b9050919050565b600060408201905061197860008301856113f2565b61198560208301846113f2565b9392505050565b60008151905061199b8161141c565b92915050565b6000602082840312156119b7576119b66112c9565b5b60006119c58482850161198c565b91505092915050565b60006060820190506119e360008301866113f2565b6119f060208301856113f2565b6119fd6040830184611363565b949350505050565b611a0e8161151a565b8114611a1957600080fd5b50565b600081519050611a2b81611a05565b92915050565b600060208284031215611a4757611a466112c9565b5b6000611a5584828501611a1c565b91505092915050565b7f546f6b656e207472616e73666572206661696c65640000000000000000000000600082015250565b6000611a94601583611756565b9150611a9f82611a5e565b602082019050919050565b60006020820190508181036000830152611ac381611a87565b9050919050565b7f56657374696e6720686173206e6f742073746172746564207965740000000000600082015250565b6000611b00601b83611756565b9150611b0b82611aca565b602082019050919050565b60006020820190508181036000830152611b2f81611af3565b9050919050565b7f4e6f2076657374696e67207363686564756c6520666f756e6400000000000000600082015250565b6000611b6c601983611756565b9150611b7782611b36565b602082019050919050565b60006020820190508181036000830152611b9b81611b5f565b9050919050565b7f436c69666620706572696f64206e6f7420726561636865640000000000000000600082015250565b6000611bd8601883611756565b9150611be382611ba2565b602082019050919050565b60006020820190508181036000830152611c0781611bcb565b9050919050565b7f4e6f20746f6b656e7320746f2072656c65617365000000000000000000000000600082015250565b6000611c44601483611756565b9150611c4f82611c0e565b602082019050919050565b60006020820190508181036000830152611c7381611c37565b9050919050565b6000604082019050611c8f60008301856113f2565b611c9c6020830184611363565b9392505050565b7f56657374696e672068617320616c726561647920737461727465640000000000600082015250565b6000611cd9601b83611756565b9150611ce482611ca3565b602082019050919050565b60006020820190508181036000830152611d0881611ccc565b905091905056fea2646970667358221220eb9c2f7e1c1ba8f3ab9d56b45da841f3e89bc96e3923f25422b25a793aae3dac64736f6c63430008180033",
  "linkReferences": {},
  "deployedLinkReferences": {}
}